:02000004085F93
:10C0000000C05F08FCFF5F0800000600200005017B
:08C0100004010D1700000000FF
:10C018001348144908B5884205D0134A824202D011
:10C02800124B121A98471248124A0021124B121A40
:10C03800984712481249884205D0124A824202D0D3
:10C048000A4B121A984710481049884205D0104ADE
:10C05800824202D0054B121A9847014808BD00BF1A
:10C0680070AD0710C0FC5F08F0AD07102D0D111062
:10C07800F0AD0710FCAF0710A10E1110E0C33F028E
:10C08800A8C05F08E8C33F02E8C33F02B0C05F082A
:0CC09800F8FF3F0219C05F080000000024
:08C0A8009CC05F0898FA3F02FA
:10C0B00010F8012B11F8013B012A28BF9A42F7D052
:10C0C000D01A7047034613F8012B002AFBD1181A27
:10C0D0000138704770B502F025FB0025054E064C6F
:10C0E000A41BA408AC4200D170BD56F8043B98478D
:10C0F0000135F7E7D0FF3F02F8FF3F0200F0A4B898
:10C1000008B500F0E1F8BDE8084002F0C3BA01F05C
:10C1100041B801F03FB801F04BB800000C2008B561
:10C12000024A034900F0D8FEFEE700BF79CD3F0286
:10C13000A8FA3F020078B0FA80F040097047012366
:10C140000370704770470000034A0020137883F0A3
:10C1500001031370704700BF48AE071008B50368AD
:10C1600032211A78034B04481A7000F0E0FB0020DB
:10C1700008BD00BF74AD071008AE071008B5006811
:10C1800003F048F9014B1860002008BD78AD071096
:10C1900008B5006803F03EF901460448C9B200F052
:10C1A000C6FB024800F08CFA002008BD08AE07105C
:10C1B00037B5002432210E4800F0B9FB2546A1B264
:10C1C000FF2300220A480095013400F083FB182C5D
:10C1D000F5D1074800F074FA4FF47A7002F022FAB1
:10C1E0000021034800F0A3FB002003B030BD00BFD6
:10C1F00008AE07100246014802F0DCBAC1EA3F026D
:10C2000010B50446094B036001F0BCFB214601F068
:10C2100005FE02F0BBFB02F0ADFB2046044B40F8EC
:10C22000043B01F085FC204610BD00BFE8FA3F0248
:10C23000D0FA3F0210B50446FFF7E2FF2046242162
:10C24000FFF769FF204610BD07B514491448FFF7F2
:10C25000D1FF14491448FFF7CDFF14491448FFF7E4
:10C26000C9FF14491448FFF7C5FF14491448FFF7E4
:10C27000C1FF144800F0BEF90021124800F057FB3E
:10C280000021FF230F481A46009100F023FB0D48C0
:10C2900003B05DF804EB00F013BA00BF95C43F0291
:10C2A000BDFA3F02C9C43F02BFFA3F02B5C43F0214
:10C2B000C1FA3F0281C43F02C3FA3F02E9C43F0210
:10C2C000C5FA3F0208AE07102DE9F3412D4B1B784C
:10C2D000423BDBB2172B30D82B4AD55C2B4AD65CBD
:10C2E0002B4AD75C2B4B1C78002354B34FF0180813
:10C2F000294C00931A462188284800F0EBFA21685F
:10C300002A46013191FBF8F308FB13112348334609
:10C31000009789B200F0DEFA2368013393FBF8F24C
:10C3200008FB123323601D4800F0CAF91C4B186843
:10C3300002B0BDE8F04102F075B900273E463D4627
:10C34000D0E7DFF85880A1B233462A46404600972E
:10C35000013400F0BFFA182CF5D100240F4800F08A
:10C36000AFF90F4B2646186802F05CF90B4D00231D
:10C37000A1B21A4628460096013400F0ABFA182CF8
:10C38000F5D1D0E774AD0710F8FA3F0210FB3F0279
:10C3900028FB3F0248AE071020AE071008AE07107A
:10C3A00078AD071070B51426D0E90053044606FB9B
:10C3B0000356AE4204D0284601F030F81435F8E7B1
:10C3C000206800F0F5FE204670BD8842F8B50446AE
:10C3D0000D46164616D9904215D2A2F11406751ACA
:10C3E000A1F114072C44B7421CD02CB13146204691
:10C3F00001F091F8337C2374304601F00FF8143EBD
:10C40000143CF0E70ED0B5420CD02CB129462046A2
:10C4100001F081F82B7C2374284600F0FFFF1435CF
:10C420001434F0E7F8BD00232DE9F041C0E90033F2
:10C4300083604F6804469F420E4624DD4FF0140887
:10C4400008FB07F000F0A6FE0546E0B1D4E90012B3
:10C4500008FB0212FFF7B9FF206800F0A9FE256073
:10C46000A760D6E9007308FB0378B84509D03946C0
:10C47000284601F06AF83B7C143505F8043C143773
:10C48000F3E7736863602046BDE8F08130B50024AF
:10C490002D4B2E4A8DB09A60C3E90044012000F074
:10C4A00053FD2146012000F06BFDCDE900440294CC
:10C4B00002F06CFA0546694603A8FFF7B4FF03A92A
:10C4C00006A8FFF7B0FF224C224B06A9236009A85B
:10C4D000FFF7A9FF09AA1E21201D01F081FD09A86F
:10C4E000FFF760FF06A8FFF75DFF1B4B2562236087
:10C4F00003A8FFF757FF194B236002F047FA4FF4E8
:10C50000165102F033FA01F03DFA214601F040FCE9
:10C510006846FFF747FF124CD4E88F3FDB070AD489
:10C520002046FFF707FE30B101210E4800F0F7FE6C
:10C530002046FFF704FE022318210A4A0A480DB0DC
:10C54000BDE8304000F047B8FCAD07100000FFFF29
:10C5500024AE0710D0FA3F0280FC3F02E8FA3F0207
:10C56000F0AD0710F4AD071008AE07100EB44FF091
:10C57000200C002300B58CB00DAA52F8041BCDE9A5
:10C5800004C3CDE900120392016804AA322000F02E
:10C59000B1FC0CB05DF804EB03B0704738B504464D
:10C5A000C0680D4608B100F003FEA379062B0CBF4E
:10C5B0000420032010FB05F080B2A08000F0EAFD0B
:10C5C000E06028B10021A28802F057FF658038BDE5
:10C5D000A0806080FBE770B5002504461646C0E9E0
:10C5E0000355057083710572FFF7D8FF2046666119
:10C5F00070BD00002DE9F74F83790446022B4ED120
:10C6000043691B78012B06D929492A48FFF7AEFF59
:10C6100003B0BDE8F08F002B0CBF4FF011094FF0B5
:10C62000040948460CBF1027032702F06DFD06469B
:10C63000384602F069FD012E054633D1484602F026
:10C64000CDFD8246012D30D1384602F0C7FD80462F
:10C650004FF0010B184B6069CDE9003BFF226B46A0
:10C660000021007800F090FB5A461449606900F000
:10C670007DFE3146484602F087FD2946384602F0E5
:10C6800083FD5E4504D148465FFA8AF102F08DFDD4
:10C69000012D04D138465FFA88F102F086FD0123AE
:10C6A0002370B5E74FF0000ACCE74FF00008CFE762
:10C6B00040FB3F0274AE071008000A0008AF2F00CD
:10C6C000C368002B00F0FC8070B583790446022B10
:10C6D00082B040F0EF80868806EB4606F0363046A2
:10C6E00000F058FD0546002800F0EB80324600219E
:10C6F00002F0C3FE6288002A00F0C780AC4602EB5D
:10C70000C202E1682A4491F900300878002BB5BFD5
:10C710004FF0D00E4FF0900ED823982310F0400F1A
:10C7200008BF734610F0200F14BF032002200344FB
:10C730008CF8783008780CF1090C00F01003002B0D
:10C7400015BF4FF0690E4FF0490E6D234D2310F0C9
:10C75000080F08BF73468CF870300B78033113F064
:10C76000020F14BF3020202013F0010F0CBF4FF038
:10C77000040E4FF0060E5B0103F080030344734484
:10C780008CF8713011F9020C11F8023C0028B5BF89
:10C790004FF0D00E4FF0900ED820982013F0400F9D
:10C7A00008BF704613F0200F14BF03230223034475
:10C7B0008CF8723011F8020C00F01003002B15BF3A
:10C7C0004FF0690E4FF0490E6D234D2310F0080F06
:10C7D00008BF73468CF8733011F802EC1EF0020F9C
:10C7E00014BF302020201EF0010F14BF06230423A5
:10C7F0004FEA4E1E0EF0800E86449E448CF874E084
:10C8000011F9013C11F8010C002BB5BF4FF0D00E0F
:10C810004FF0900ED823982310F0400F08BF7346B6
:10C8200010F0200F14BF0320022003448CF8753051
:10C8300011F8010C00F01003002B15BF4FF0690E2A
:10C840004FF0490E6D234D2310F0080F08BF7346BB
:10C850008CF8763011F8010C10F0020F14BF4FF075
:10C86000300E4FF0200E430103F080037344DBB21F
:10C87000C00703F1060E03F104034CBF8CF877E008
:10C880008CF8773094457FF43EAF606900F051FD3D
:10C890000022334629466069009200F099FD6069E4
:10C8A00000F04AFD284600F083FC00F0D7F8206134
:10C8B00002B070BD04490548FFF758FE02B070BDD4
:10C8C00070470349F7E700BF60FB3F0274AE0710F3
:10C8D0007CFB3F0270B544889DF810508C4222D9F1
:10C8E000047A44B112FB04F214FB03F314FB05F4C5
:10C8F000120A1B0A250AC668807901EB4101023839
:10C900007418062810D8DFE800F0040F08040F049C
:10C91000040073546270A57005E0FE2A28BFFE2251
:10C9200072546570A37070BD72546370F3E7037A3C
:10C930004A1CD2B2934270B51FD0013B13F0FF03E3
:10C94000C4680CD0FF290FBF4FF6FF71110201F12F
:10C95000FF31B1FBF3F30CBFB1FBF3F39BB2254600
:10C960008688291B89B28E4206D929785943C1F39A
:10C97000072105F8011BF3E7027270BD09B50448F1
:10C980000068044B03441B689B68029309BD0000C8
:10C9900070AD07105000000009B504480068044B52
:10C9A00003441B68DB68029309BD000070AD0710EB
:10C9B0005000000009B504480068044B03441B689C
:10C9C0009B68029309BD000070AD071014000000C1
:10C9D00009B504480068044B03441B68DB680293F4
:10C9E00009BD000070AD07101400000009B504482F
:10C9F0000068044B03441B681B69029309BD0000D7
:10CA000070AD07101400000009B504480068044B1D
:10CA100003441B685B69029309BD000070AD0710F9
:10CA20001400000009B504480068044B03441B6867
:10CA30005B68029309BD000070AD071000000000A4
:10CA400009B504480068044B03441B68DB68029383
:10CA500009BD000070AD07100000000009B50448D2
:10CA60000068044B03441B681B69029309BD000066
:10CA700070AD07100000000009B504480068044BC1
:10CA800003441B685B69029309BD000070AD071089
:10CA90000000000009B504480068044B03441B680B
:10CAA0005B6C029309BD000070AD07103000000000
:10CAB00009B504480068044B03441B689B6C02934F
:10CAC00009BD000070AD07103000000009B5044832
:10CAD0000068044B03441B68DB6C029309BD000033
:10CAE00070AD07103000000009B504480068044B21
:10CAF00003441B685B6D029309BD000070AD071015
:10CB00003000000009B504480068044B03441B686A
:10CB10005B69029309BD000070AD07104C00000076
:10CB200009B504480068044B03441B689B680293E2
:10CB300009BD000070AD07102400000009B50448CD
:10CB40000068044B03441B68DB68029309BD0000C6
:10CB500070AD07102400000009B504480068044BBC
:10CB600003441B681B69029309BD000070AD0710E8
:10CB70002400000009B504480068044B03441B6806
:10CB80005B69029309BD000070AD0710240000002E
:10CB900009B504480068044B03441B689B69029371
:10CBA00009BD000070AD07102400000009B504485D
:10CBB0000068044B03441B68DB69029309BD000055
:10CBC00070AD07102400000009B504480068044B4C
:10CBD00003441B681B6A029309BD000070AD071077
:10CBE0002400000009B504480068044B03441B6896
:10CBF0009B6A029309BD000070AD0710240000007D
:10CC000009B504480068044B03441B68DB6A0293BF
:10CC100009BD000070AD07102400000009B50448EC
:10CC20000068044B03441B681B6C029309BD0000A1
:10CC300070AD07102400000009B504480068044BDB
:10CC400003441B681B6A029309BD000070AD071006
:10CC50001000000009B504480068044B03441B6839
:10CC60005B6A029309BD000070AD07101000000060
:10CC700009B504480068044B03441B689B6A02938F
:10CC800009BD000070AD07101000000009B5044890
:10CC90000068044B03441B68DB6A029309BD000073
:10CCA00070AD07101000000009B504480068044B7F
:10CCB00003441B681B6B029309BD000070AD071095
:10CCC0001000000009B504480068044B03441B68C9
:10CCD0005B6B029309BD000070AD071010000000EF
:10CCE00009B504480068044B03441B681B6C02939D
:10CCF00009BD000070AD07101000000009B5044820
:10CD00000068044B03441B681B69029309BD0000C3
:10CD100070AD07101800000009B504480068044B06
:10CD200003441B68DB69029309BD000070AD071066
:10CD30001800000009B504480068044B03441B6850
:10CD40001B6A029309BD000070AD071018000000B7
:10CD500009B504480068044B03441B685B6A0293EE
:10CD600009BD000070AD07101800000009B50448A7
:10CD70000068044B03441B689B6A029309BD0000D2
:10CD800070AD07101800000009B504480068044B96
:10CD900003441B68DB6A029309BD000070AD0710F5
:10CDA0001800000009B504480068044B03441B68E0
:10CDB0009B6B029309BD000070AD071018000000C6
:10CDC00009B504480068044B03441B681B6C0293BC
:10CDD00009BD000070AD07101800000009B5044837
:10CDE0000068044B03441B685B6C029309BD0000A0
:10CDF00070AD07101800000009B504480068044B26
:10CE000003441B681B68029309BD000070AD071046
:10CE10003400000009B504480068044B03441B6853
:10CE20005B68029309BD000070AD0710340000007C
:10CE300009B504480068044B03441B689B680293CF
:10CE400009BD000070AD07103400000009B50448AA
:10CE50000068044B03441B681B69029309BD000072
:10CE600070AD07103400000009B504480068044B99
:10CE700003441B685B69029309BD000070AD071095
:10CE80003400000009B504480068044B03441B68E3
:10CE90009B69029309BD000070AD071034000000CB
:10CEA00009B504480068044B03441B68DB6902931E
:10CEB00009BD000070AD07103400000009B504483A
:10CEC0000068044B03441B681B6A029309BD000001
:10CED00070AD07103400000009B504480068044B29
:10CEE00003441B685B6B029309BD000070AD071023
:10CEF0004800000009B504480068044B03441B685F
:10CF00005B6D029309BD000070AD07104800000082
:10CF100009B504480068044B03441B68DB6E0293A8
:10CF200009BD000070AD07104800000009B50448B5
:10CF30000068044B03441B681B6F029309BD00008B
:10CF400070AD07104800000009B504480068044BA4
:10CF500003441B685B68029309BD000070AD0710B5
:10CF60000800000009B504480068044B03441B682E
:10CF70005B69029309BD000070AD07100800000056
:10CF800009B504480068044B03441B68DB6A02933C
:10CF900009BD000070AD07100800000009B5044885
:10CFA0000068044B03441B68D3F88830029309BD22
:10CFB00070AD07100800000009B504480068044B74
:10CFC00003441B68D3F89430029309BD70AD071079
:10CFD0000800000009B504480068044B03441B68BE
:10CFE0005B68029309BD000070AD071028000000C7
:10CFF00009B504480068044B03441B689B6802930E
:10D0000009BD000070AD07102800000009B50448F4
:10D010000068044B03441B68DB68029309BD0000F1
:10D0200070AD07102800000009B504480068044BE3
:10D0300003441B681B69029309BD000070AD071013
:10D040002800000009B504480068044B03441B682D
:10D050005B69029309BD000070AD07102800000055
:10D0600009B504480068044B03441B689B6902939C
:10D0700009BD000070AD07102800000009B5044884
:10D080000068044B03441B68DB69029309BD000080
:10D0900070AD07102800000009B504480068044B73
:10D0A00003441B681B6A029309BD000070AD0710A2
:10D0B0002800000009B504480068044B03441B68BD
:10D0C0001B6B029309BD000070AD07102800000023
:10D0D00009B504480068044B03441B685B6B02936A
:10D0E00009BD000070AD07102800000009B5044814
:10D0F0000068044B03441B681B6C029309BD0000CD
:10D1000070AD07102800000009B504480068044B02
:10D1100003441B685B6C029309BD000070AD0710EF
:10D120002800000009B504480068044B03441B684C
:10D130005B6D029309BD000070AD07102800000070
:10D1400009B504480068044B03441B689B6D0293B7
:10D1500009BD000070AD07102800000009B50448A3
:10D160000068044B03441B685B68029309BD000020
:10D1700070AD07102C00000009B504480068044B8E
:10D1800003441B68DB6B029309BD000070AD071000
:10D190002C00000009B504480068044B03441B68D8
:10D1A0001B68029309BD000070AD07100400000069
:10D1B00009B504480068044B03441B685B6802938C
:10D1C00009BD000070AD07100400000009B5044857
:10D1D0000068044B03441B689B68029309BD000070
:10D1E00070AD07100400000009B504480068044B46
:10D1F00003441B685B6A029309BD000070AD071011
:10D200000400000009B504480068044B03441B688F
:10D21000DB6B029309BD000070AD07100400000035
:10D2200009B504480068044B03441B681B6C029357
:10D2300009BD000070AD07100400000009B50448E6
:10D240000068044B03441B685B6C029309BD00003B
:10D2500070AD071004000000002240681146FFF77F
:10D260001BBF002240681146FFF732BF0022406812
:10D27000FFF720BF0022406881F00101FFF7FEBEEA
:10D28000002340681A461946FFF7EABE00234068AB
:10D290001A461946FFF7D6BE002240681146FFF72E
:10D2A000C3BE002240681146FFF7A2BE0022022141
:10D2B0004068FFF7ABBE002340681A46FFF78ABEFE
:10D2C0000322024B5A60024A1A6070474CAE0710A4
:10D2D000A4FB3F020B6803604B68436013B15A68BC
:10D2E00001325A60704738B5046805467CB16368FE
:10D2F000013B63605BB9236820469B689847A3683D
:10D30000013BA3601BB923682046DB689847284689
:10D3100038BD0021FFF762BD0021FFF751BD10B5F8
:10D32000044608462170FFF7F7FC0023204663609F
:10D3300010BD0078FFF7F0BF0078FFF7EABF0000EC
:10D3400030B50024400818601868E5B2884206D954
:10D350000134082C02D040081860F5E70725024B7D
:10D360005B5D137030BD00BFE0FB3F0200232DE981
:10D37000F041044688B000780E4617460293FFF746
:10D38000CBFF054600BB0146142203A894F8008099
:10D3900002F073F80B232A46404603A9ADF80C307F
:10D3A000FFF7D6FC07FB06F1049802AB0DF107026C
:10D3B0008DF80750FFF7C4FF20789DF80710FFF79E
:10D3C0009DFC2078FFF7A5FF029808B0BDE8F0812A
:10D3D00030B587B00A9D044600950078FFF7C6FC7B
:10D3E0003DB9207802A9FFF7DDFC9DF81430DB077A
:10D3F000F7D407B030BD000002220020044B1A60B1
:10D40000044B054AC3E900009A60FFF79DBD00BFC9
:10D4100060AE071054AE07100000FFFF10B50446C1
:10D420000068FFF7C5FE204610BD10B50446006831
:10D4300008B1FFF7BDFE0023C4E90133236010BD2E
:10D4400038B504460D4600680131FFF7BFFE10B144
:10D45000C4E90005012038BD10B50368044623B1B6
:10D4600043688B4201D3012010BD2046FFF7E8FF3F
:10D470000028F9D0A368002BF5D122681370F2E7D9
:10D4800037B50D46114601920446FFF7E5FF019AB4
:10D4900028B92046FFF7C9FF204603B030BD294612
:10D4A000A260206801F0C2FF00212268A368D15465
:10D4B000F2E7002313B50446C0E900338360037329
:10D4C00041B108460191FEF7FDFD01990246204653
:10D4D000FFF7D6FF204602B010BD38B505460068FC
:10D4E0000C4670B16A688B689A4208D3096831B1FA
:10D4F00002F011F8A368AB600023A36038BDFFF70A
:10D5000057FE23682B6063686B60A368AB600023E1
:10D51000C4E90033F1E7002310B50446C0E9003345
:10D5200083600373FFF7D9FF204610BD884210B512
:10D53000044605D00B682BB18A681946FFF7A0FF97
:10D54000204610BDFFF771FFFAE7002310B504462F
:10D55000C0E9003383600373FFF7E8FF204610BD86
:10D5600010B543680446013B436063B903689B6898
:10D570009847A368013BA3602BB923682046BDE808
:10D580001040DB68184710BD70B50446D0E9005361
:10D5900005EB0316AE4204D02846FFF73FFF1035D7
:10D5A000F8E72068FFF704FE204670BD002302481C
:10D5B0000360FFF76FBA00BF64AE071010B50446F2
:10D5C00080680368DB689847E3681844E06010BD32
:10D5D000F8B506460D4600248F18BD420CD03368BE
:10D5E00030469B6815F8011B9847031E01DB1C445D
:10D5F000F3E7002C08BF1C462046F8BD704710B565
:10D6000004461021FEF787FD204610BD13B50446E1
:10D61000084659B10191FEF755FD024620462368A0
:10D620000199DB6802B0BDE81040184702B010BD98
:10D6300003689B6818470023012A98BF0A2230B567
:10D640008BB08DF8243009AC0D46B1FBF2F101FB33
:10D65000125303F0FF03092B94BF30333733DBB28F
:10D66000AA4204F8013DEFD92146FFF7CFFF0BB0E6
:10D6700030BD10B50446FFF7FFF9E060236820468F
:10D680005B699847002808DAFFF7F6F9E368C01AE3
:10D69000A3689842F2D34FF0FF3010BD2DE9F0415E
:10D6A00007460C460D468E18B542A5EB040807D078
:10D6B0003846FFF7DEFF031E02DB05F8013BF3E708
:10D6C0004046BDE8F0817047084611B10B685B68C1
:10D6D0001847704770477047704738B504460D4685
:10D6E00000682E2101F00DFF2368C31A2B6023B1BF
:10D6F000037803B1013023682060184638BD10B5A7
:10D7000004460421FEF707FD204610BD10B504466F
:10D710000421FEF700FD204610BDFFF7D7B908B57C
:10D72000FEF7C6FCB0FA80F0400908BD704710B59E
:10D730000C4601F02BF9844205D101F027F9BDE830
:10D74000104001F017B901F08BFD844205D101F0C2
:10D7500087FDBDE8104001F096B92CB12368204642
:10D76000BDE810405B68184710BD13B50446084675
:10D770000191FEF7A7FC02462046019902B0BDE8E0
:10D78000104001F0B1BC13B5044608460191FEF704
:10D7900099FC0246204623680199DB6802B0BDE887
:10D7A0001040184707B503688DF807100122DB68A1
:10D7B0000DF10701984703B05DF804FB2DE9F74F21
:10D7C0004FF0140AD0E90084174645460AFB04F4DA
:10D7D0000093174BA4105C43002C21DD66100AFB5C
:10D7E00006F005EB0009B9F804B03A465F4528BFDA
:10D7F0005A462858019101F096FE00284FF0010387
:10D8000001990BD15F4503D1009A13703446E3E7C9
:10D81000FCD9A61B09F11405013EF7E7F9DBF5E792
:10D82000A5EB08050248AD10684303B0BDE8F08FD2
:10D83000CDCCCCCC7FB50369057E019103B3F9B1A2
:10D84000002600F10C04039603A901A8FFF745FF89
:10D850000146A8B10DF10B032046039A8DF80B6029
:10D86000FFF7ACFF9DF80B3053B12368142404FB81
:10D870000034B4F906300834002BA8BFDDB2E3E76A
:10D88000284604B070BD0EB4F0B58CB000AF07F1FF
:10D89000440555F8042B04462B46202107F11000BF
:10D8A0007A60FD60FFF7A0FC1F287A681AD900F1A2
:10D8B000080323F007036E46ADEB030D411C2B4616
:10D8C0006846FD60FFF790FC021E04DD2368694690
:10D8D0002046DB689847B5463037BD46BDE8F04086
:10D8E00003B070470028F7D023680246DB68204663
:10D8F00007F110019847EFE710B5084CD4E88F3FC7
:10D90000DB0709D42046FEF715FC28B12046FEF7B8
:10D9100016FC034801F078FD024810BD6CAE0710FC
:10D920000DDA3F027CAD071010B5084CD4E88F3FEC
:10D93000DB0709D42046FEF7FDFB28B12046FEF7A1
:10D94000FEFB034801F060FD024810BD70AE0710F9
:10D9500065DA3F0280AD071038B500250446C0E9FE
:10D960000055C0E904558560856140F8245FFFF7E4
:10D9700091F8FFF7C1FFE061FFF7D6FF2573206242
:10D98000204638BD10B50A4CD4E88F3FDB070CD4D5
:10D990002046FEF7CFFB40B10648FFF7DDFF2046EB
:10D9A000FEF7CDFB044801F02FFD024810BD00BF7B
:10D9B00068AE071078AE071031E23F020023024A3A
:10D9C00002490348FFF7B2BA19E03F02A5DF3F0260
:10D9D00025DF3F0200231A4619461846FFF7A6BA6C
:10D9E00037B504468D686846FFF774FC6A462946D9
:10D9F000204601F099FA01A8FFF775FC204603B014
:10DA000030BD37B50446CD686846FFF763FC6A460B
:10DA10002946204601F064FA01A8FFF764FC20467D
:10DA200003B030BD37B504460D696846FFF752FCB8
:10DA30006A462946204601F0FCF901A8FFF753FC8D
:10DA4000204603B030BD000070B58AB00D460146D7
:10DA500004A8FFF7C5FF144E04A801F07DFAE8B151
:10DA6000684604A9FFF7CDFF31460298FFF757FE3D
:10DA7000044610B12C1E18BF012401A8FFF733FC87
:10DA8000002CE9D0684604A9FFF7CCFF684601F0F6
:10DA900006FA286001A8FFF726FCDDE705A8FFF7D6
:10DAA00022FC0AB070BD00BF00FC3F0237B50C4637
:10DAB000134920461546FEF7FBFA50B900F066FF01
:10DAC0004FF4165100F052FF03B0BDE8304000F0B3
:10DAD0005DBF20460B49FEF7EBFA78B94FF41653B9
:10DAE00001A928460193FFF7AFFF01F0B9FB0199A7
:10DAF00000F0C6FF01F0B4FB03B030BD0020FBE72F
:10DB000005FC3F020CFC3F0270B51426D0E900531F
:10DB1000044606FB0356AE4205D005F10800FFF7A8
:10DB2000F3FF1435F7E72068FFF742FB204670BD8E
:10DB300010B504460C30FFF7E7FF2046FFF724FD41
:10DB4000204610BD10B50446034B40F8043BFFF7D8
:10DB5000EFFF204610BD00BFD0FA3F0210B50446CB
:10DB6000FFF7F0FF20462421FEF7D5FA204610BD2E
:10DB700010B50446024B0360FFF7E4FF204610BDDA
:10DB800098FC3F0210B50446FFF7F2FF204624211F
:10DB9000FEF7C1FA204610BD0A6810B502604A6857
:10DBA00042600022C0E9022202618C688A608460BF
:10DBB000CC68CA60C4600C690A61046110BD0022AF
:10DBC000C0E90022826010B50C680A6004604C68ED
:10DBD0004A6044608C688A60846010BD10B5044659
:10DBE00003681868FEF780FF204610BD2DE9F04F4E
:10DBF00087B003931C4B80465B688946C3F30803D8
:10DC000016466BB9FFF7BEFE044600F12403406AD6
:10DC10000593FFF782FD237B2BB105A8FFF7DEFFFD
:10DC200007B0BDE8F08F01235FFA89F92373D4E9C7
:10DC3000005305EB830AAA4512D055F8047B314600
:10DC4000381DFFF7F7FD8145F5D3039A3B68009235
:10DC5000D3F808B04A46334641463846D847EAE743
:10DC600000232373D9E700BF00ED00E02DE9F74F53
:10DC70009B461A4B80465B688946C3F308031646E9
:10DC80006BB9FFF77FFE044600F12403406A01935D
:10DC9000FFF743FD237B2BB101A8FFF79FFF03B0E4
:10DCA000BDE8F08F0123F6B22373D4E9005305EBEE
:10DCB000830A55450ED055F8047B5946381DFFF7A9
:10DCC000B9FD8642F5D33B684A4641463846DB6893
:10DCD0009847EEE700232373DEE700BF00ED00E086
:10DCE0002DE9F341164B05465B680F46C3F3080365
:10DCF0001BBBFFF747FE044600F12403406A019373
:10DD0000FFF70BFDD4E90063462406EB8308B0451A
:10DD100009D101A8FFF762FFA542B4BF002001208E
:10DD200002B0BDE8F08156F8040B39460430FFF725
:10DD300081FD8442A8BF0446E9E70020F0E700BF68
:10DD400000ED00E0F8B5D0E901539D4204460E46CF
:10DD50000DDB6F1C002F006804DDB900FFF736FAF9
:10DD600018B9F8BDFFF724FA00202060A7602768E3
:10DD7000626807EB85019200A2EB8502081D01F0A5
:10DD800062FB47F825606368012001336360E8E7C0
:10DD900037B5044600F12403406A01930D46FFF7AE
:10DDA000BCFCD4E9003203EB8202934219460AD04C
:10DDB00009680433A942F8D101A8FFF70FFF002535
:10DDC000284603B030BD29462046FFF7BBFF054675
:10DDD0000028F1D06368012B01D1FFF7EFFD01A806
:10DDE000FFF7FCFEECE70B4670B50446D0E90002F5
:10DDF00000EB820282420FD001461D6851F8046B8D
:10DE0000AE4207D1521A01F01EFB01206368013BAC
:10DE1000636070BD0846EDE70020FAE71FB50446D1
:10DE200000F12403406A01910393FFF776FC20463A
:10DE300001A9FFF7D8FF18B163680BB9FFF7CAFD56
:10DE400003A8FFF7CBFE04B010BD182370B504463D
:10DE5000D0E9045603FB0656AE4215D0204605F124
:10DE60001001FFF7C0FF63680BB9FFF7B3FDE0696E
:10DE700029690368DB689847696919B1206A0368F2
:10DE8000DB6898471835E7E71826D4E9045306FB02
:10DE90000356AE4204D02846FFF7C0FA1835F8E71B
:10DEA0000023636170BD73B50446FFF793FD04F171
:10DEB0002403606A0193FFF730FC2046FFF7C5FF9B
:10DEC00001A8FFF78BFE606A08B1FEF7F1FDD4E907
:10DED0000453182606FB0356AE4204D02846FFF72B
:10DEE0009DFA1835F8E72069FFF762F92068FFF717
:10DEF0005FF9204602B070BD0148FFF7D4BF00BFF4
:10DF000078AE07108842F8B504460D46164615D976
:10DF1000904214D2A2F11406751AA1F114072C44F0
:10DF2000B7421AD01CB131462046FFF735FE06F144
:10DF30000800FFF7E9FD143E143CF1E70DD0B542AF
:10DF40000BD01CB129462046FFF726FE05F108003C
:10DF5000FFF7DAFD14351434F1E7F8BD8842F8B55F
:10DF600004460D46164614D9904213D2A2F110066B
:10DF7000751AA1F110072C44B74218D01CB13146D4
:10DF80002046FFF7C8FA3046FFF748FA103E103C2B
:10DF9000F2E70CD0B5420AD01CB129462046FFF763
:10DFA000BAFA2846FFF73AFA10351034F2E7F8BD0E
:10DFB00070B50E1E054611DD3001FFF7EBF8044683
:10DFC00058B1D5E9001201EB0212FFF7C7FF28682C
:10DFD000FFF7EEF801202C60AE6070BD0024F6E77C
:10DFE0002DE9F04F90460023462295B00391D8F8D2
:10DFF000041004469942C0E90033C0E90233C0E985
:10E000000433CDE9083302760A9323DCD8E90057BC
:10E01000142303FB0757AF423BD029460BA8FFF759
:10E020007AFA0BA90FA8099EFFF775FADDE9091323
:10E0300099421BDA089B099A03EB0616314603EB5B
:10E04000021206F11000FFF789FFEEB9099B0133B8
:10E05000099311E008A8FFF7ABFF0028D6D108A864
:10E06000FFF792FA204615B0BDE8F08F013108A8FD
:10E07000FFF79EFF0028DDD10FA8FFF7CFF90BA80F
:10E08000FFF7CCF91435C6E730460FA9FFF743FA7E
:10E09000DCE700264FF01409CDE90B660D96DDE9AB
:10E0A00008239E427CDA3301D35806930BB901361C
:10E0B000F5E70023079309FB06F30BAD029307A9CD
:10E0C00006A8FFF70AFB82460028F0D04FF00003B5
:10E0D00001468DF817302846079A0DF11703FFF710
:10E0E0006DFB9DF817700190002F4AD1BDF81C30D0
:10E0F000CDE91177ADF840304FF6FF73CDF83CA075
:10E10000ADF842301397D5E90132934217DB03F1A2
:10E11000010ABAF1000F30DD09FB0AF0FFF73AF807
:10E12000834660B3D5E9001209FB0212FFF7EAFE4D
:10E130002868FFF73DF8C5F800B0C5F808A02B68BF
:10E14000019A09FB023A6A68514609FB02320AF158
:10E150001400FFF7D7FEBAF1000F03D050460FA905
:10E16000FFF71AFD6B6801336B6011A8FFF7CCFC59
:10E170003FB10BA8FFF7C8FC71E7BB46D8E7012702
:10E18000F3E7019B2D6809FB0355069B1B782BB910
:10E19000D8F80030029A13441B7CEB8008358EE7D8
:10E1A0002168226062686360A36809920A9A0A93F0
:10E1B000E368A2600B9A0B932369E2600C9A0C93BC
:10E1C000636922610D9A0D93039B08916261237626
:10E1D000CFE70000F0B504462646174687B00D4647
:10E1E00068461946FEF71FF90B4B694646F8043B93
:10E1F00003A8FEF718F9394603AA3046FFF7F0FEE8
:10E2000003A8FEF7CFF86846FEF7CCF82046034B8C
:10E210002562236007B0F0BDD0FA3F0280FC3F02C8
:10E22000F0B50F4685B038461C4916461D460A9C77
:10E23000FDF73EFFC0B9A4B1294601A8FFF7BFFC16
:10E240002420174901F0DCF8054630B101AB324615
:10E250002146FFF7BFFF134B2B6001A8FEF7A2F882
:10E260002C46204605B0F0BD38460F49FDF720FF8B
:10E2700090B9002CF5D0294601A8FFF7A0FC242076
:10E28000074901F0BDF805460028E6D03246214690
:10E2900001ABFFF79FFFE0E70024E2E714FC3F0239
:10E2A00039FE3F0298FC3F0218FC3F02014B024A34
:10E2B0001A60704774AE071029FC3F022DE9F04741
:10E2C000089DD0F8209004460E461746984600F068
:10E2D0005DFB81454DD02B79190704D520466A692D
:10E2E0005449FFF7D0FAB8F1000F0DD05B2120465A
:10E2F000FFF758FA41462046FFF745FA2368022205
:10E300002046DB684C4998472B79DA0724D5D5F8A5
:10E3100008802F21404601F01AF908B100F10108E8
:10E3200041462046FFF72FFA2B799B0708D53A2163
:10E330002046FFF737FA2046EA684049FFF7A3FA7C
:10E340002A79236812F0040F20464FF00202DB689E
:10E3500014BF3B493B4998472B7958071DD529697C
:10E360000B461A4613F8010B60B1202808D1194654
:10E37000F7E7354800F05BFC0028ACD0BDE8F0873B
:10E380002828EED12368521A2046DB689847236874
:10E3900004222046DB682D49984700213846FEF7C5
:10E3A000B7FD01462046FFF7EEF92368022220461A
:10E3B000DB68244998471EB131462046FFF7E3F950
:10E3C0002B7913F0300F2CD023682149DB6802220F
:10E3D000204698472B79D9060AD52368072220467C
:10E3E0001C49DB6898472046AA691B49FFF74BFA8E
:10E3F0002B799A0611D5DB0605D523680222204623
:10E40000DB680F4998472368204614490A22DB68D5
:10E4100098472046E969FFF7B6F95D212046FFF7E6
:10E42000C1F923682046BDE8F0470222DB680C49A9
:10E43000184700BF2DFC3F0234FC3F0237FC3F026F
:10E440003AFC3F023FFC3F02F0AE07103DFC3F02AA
:10E4500042FC3F0245FC3F024DFC3F0250FC3F02A4
:10E460005BFC3F022DE9F0410446076A0D46164663
:10E4700000F08CFA874207D0206A324603682946AA
:10E48000BDE8F041DB681847034800F0D0FB0028E6
:10E49000F2D0BDE8F08100BFF0AE07102DE9F043E7
:10E4A00085B0D0F8209005460F4690461E460C9C3D
:10E4B00000F06CFA814505D1494800F0B8FB00280E
:10E4C00040F08A804FF000092B6A464A6846CDE941
:10E4D000023900928DF8049000F067FD49464046ED
:10E4E000FEF716FD804640490122684600F0ECFD2B
:10E4F0004146FFF73AF93FB13C490122684600F036
:10E50000E3FD3946FFF731F93EB13949012268464A
:10E5100000F0DAFD3146FFF728F92379DF070ED541
:10E52000A6682F21304601F012F800B1461C31498F
:10E530000122684600F0C8FD3146FFF716F923793D
:10E540009E0707D52C490222684600F0BDFDE16810
:10E5500000F038FD2379580714D5266933461F4645
:10E5600013F8012B2AB1202A01D11E46F7E7282AE9
:10E57000F5D102222149684600F0A6FD3146BA1BBA
:10E5800000F0B2FD2379190707D51D49012268461D
:10E5900000F09AFD616900F027FD2379DA0607D5BE
:10E5A00018490422684600F08FFDA16900F00AFDB9
:10E5B00023799B0607D514490622684600F084FD9E
:10E5C000E169FFF7D2F8684600F0D9FC286A022218
:10E5D00003680E49DB68984705B0BDE8F08300BFCB
:10E5E000F0AE0710F0FB3F020AFC3F025EFC3F0268
:10E5F000CCFE3F0260FC3F0262FC3F0265FC3F0232
:10E6000068FC3F026AFC3F026FFC3F025BFC3F027A
:10E61000024B1A68024B1A60704700BF84AD0710A6
:10E62000A0AE07100021FEF79DBC00000022014BA8
:10E630009A607047A4AE0710014B1860704700BF86
:10E6400088AD071008B50F4B43B100F09FF9036880
:10E650001B699847002801DD00E000BF0A4B43B169
:10E6600000F0FEFD03681B699847002801DD00E00B
:10E6700000BF064B0BB100F039FE054B0BB100F0AB
:10E680006BFE08BD0000000000000000000000005C
:10E690000000000008B5FFF7D5FFFEF7EDF9014BCC
:10E6A000186008BD4CAF07100548064A08B5121A95
:10E6B000054900F0BBFE054B054A1A6008BD00BFC6
:10E6C00000B4071004B4071040FD5F0800B4071041
:10E6D0001E1C279A002307B51A466FF07701009396
:10E6E000FEF76AFC03B05DF804FB000007B5438841
:10E6F0000A2B08D0502B0BD1094B1B684BB103B030
:10E700005DF804EB1847FFF7E5FF03B05DF804FB85
:10E7100000231A466FF077010093FEF74DFCF4E7F3
:10E72000B8AE0710002110B51148FEF787FD114B58
:10E730001A68114B9A420CBF012200220F4B1A702B
:10E7400001D0FFF7B1FFFEF76DF9044600F09EFE21
:10E750000B4B13B1204600E000BF00210848FEF734
:10E760000BFDBDE8104000210648FEF717BC00BFB6
:10E7700071E93F0200B407101E1C279AB4AE0710BF
:10E780000000000025EA3F0210B588B00446684644
:10E79000FEF78FFE694604A8FEF7D7FE04A8A0473F
:10E7A000044604A8FEF73AFE6846FEF737FE204608
:10E7B00008B010BD1FB500231024CDE9020101925D
:10E7C00069461A461846ADF80230ADF80040FEF72B
:10E7D000C5FC04B010BD704710B504461821FDF704
:10E7E0009AFC204610BDF0B5037D0E46062B4FF077
:10E7F00000048DB000F1040712D000F1080515F8EF
:10E80000011D0A223046FEF716FFAF42044419D01C
:10E81000002CF4D02E213046FEF70AFF0444EEE728
:10E820002F236A4639460A208DF80040FEF76AF920
:10E830006846FDF747FC3368024669463046DB68A8
:10E840009847044620460DB0F0BD000010B50446C0
:10E85000044B1122002140F8043B00F00EFE20463C
:10E8600010BD00BFFCFC3F020346074A10B543F849
:10E87000042B01F1100251F8044B914243F8044B70
:10E88000F9D10A781A7010BDFCFC3F0210B59DF852
:10E89000084044EA032343EA0242042342EA0161B6
:10E8A0004160037510BD000007B5064B0360CB78CF
:10E8B00000938B784A780978FFF7E8FF03B05DF89A
:10E8C00004FB00BFFCFC3F02417470477047704777
:10E8D00008B50021007CFEF7D5FA40EAE07008BDDB
:10E8E00008B50121007CFEF7CDFA40EAE07008BDD2
:10E8F00008B5007CFEF7B8FA20EAE07008BD08B55C
:10E90000007CFEF7A3FA20EAE07008BD13B50446C8
:10E91000007C0191FEF7A8FA0028019901DC607CD7
:10E9200020B1207CFEF7BCFA20EAE07002B010BDF6
:10E93000007CFEF7C3BA10B504461421FDF7EBFBCB
:10E94000204610BD10B54FF47A73044608460021E6
:10E95000C4E90113044B207423600123114663743E
:10E96000FEF74AFA204610BD10FD3F020022007C4F
:10E97000FEF750BA007CFEF75BBA10B504461422CD
:10E98000002100F07AFD204610BD000010B588B0CF
:10E9900003A8FFF7F2FF0C4CD4E88F1F11F0010120
:10E9A0000FD120460191FDF7C5FB019948B103AA9B
:10E9B0000648FFF7C7FF2046FDF7C1FB044800F0FB
:10E9C00023FD024808B010BDBCAE0710C0AE071052
:10E9D00005EC3F0270474174704708B5007CFEF7B4
:10E9E00001F920EAE07008BD08B5007CFEF7B4F834
:10E9F00020EAE07008BD08B5007CFEF7C9F840EADF
:10EA0000E07008BD08B5007CFEF7B4F840EAE0709D
:10EA100008BD007CFEF7CAB837B5457C04462DB169
:10EA2000207C03B0BDE83040FEF788B8007C01913F
:10EA3000FEF7D8F800280199F2DC284603B030BD73
:10EA400010B504461421FDF766FB204610BD0000FA
:10EA500010B54FF47A730446084611460022C4E903
:10EA60000123044B2074236001236374FEF7D6F85E
:10EA7000204610BD44FD3F020023007CFEF7C0B8D5
:10EA80000022FFF7F9BF007CFEF74AB8007CFEF7D2
:10EA90009BB87047F8B5064615460C468F18BC4221
:10EAA00006D0336830469B6814F8011B9847F6E798
:10EAB0002846F8BD0022007CFEF7BEB80021007C8D
:10EAC000FEF7C8B80021007CFEF7D2B80021007C18
:10EAD000FEF7DCB80021007CFEF7E6B810B504466E
:10EAE0001421FDF718FB204610BD000038B5044680
:10EAF00015464FF47A730022C4E90123094B0846F6
:10EB0000217423602946FEF7EBF8BF3008D16B690A
:10EB1000DB0705D56868FEF74BFBE868FEF748FBA6
:10EB2000204638BD78FD3F02FF210022044B012022
:10EB3000C3E9001264211A61C3E90201704700BFF2
:10EB4000D4AE0710002240681146FEF76DBA0022CD
:10EB500040681146FEF7A0BA002240681146FEF751
:10EB6000B7BA00224068FEF7A5BA0022406881F0DB
:10EB70000101FEF783BA002340681A461946FEF7E2
:10EB80006FBA002340681A461946FEF75BBA0022A6
:10EB900040681146FEF72CBA002202214068FEF7B9
:10EBA00035BA002340681A46FEF714BA0422024B15
:10EBB0005A60024A1A607047E8AE0710A4FD3F028F
:10EBC000002340681A46FEF705BA00220221406879
:10EBD000FEF71CBA002240681146FEF709BA00226F
:10EBE00040681146FEF720BA002340681A461946CD
:10EBF000FEF728BA002340681A461946FEF730BAD5
:10EC000000214068FEF772BA00214068FEF77CBA26
:10EC10000022406881F00101FEF730BA002240680E
:10EC2000FEF748BA002240681146FEF751BA0022AA
:10EC300040681146FEF730BA00214068FEF780BAFE
:10EC40002DE9F04395B014460D460746FFF7FEFD4B
:10EC500000211C220DA8009100F00FFC402320464B
:10EC60000C9300216B460CAAFDF796FE0446002883
:10EC70004BD1024601216868FEF7D6F90221804691
:10EC800022466868FEF7D0F921468146009E002E94
:10EC90003BD0002939D17368022B03D00A2B11D045
:10ECA000F669F4E7B8F1000FFAD0716906A80431EB
:10ECB0003C1D07ADFFF7F8FD0FCD0FC42B68414693
:10ECC0002370EDE7B9F1000FEAD0102201A87469B2
:10ECD00000F0D3FB062301AD8DF8143004F10803D6
:10ECE00018342A4618685968083303C2A3421546E7
:10ECF000F7D101A906A83C1D07ADFFF7B5FD0FCD63
:10ED00000FC42B6849462370CAE70098FDF736FE0A
:10ED1000384615B0BDE8F083033802289ABF024B8D
:10ED200053F8200001487047E0FD3F02F0AE0710A5
:10ED300008B500224068FEF7F5F9BDE80840FFF786
:10ED4000EBBF0000024B034A1A6000225A60704772
:10ED5000F0AE0710F4FD3F02012200F1100313F89A
:10ED6000101C1846012908D153F8041C02EB41027B
:10ED7000013A03F11003F2D17047022904BF53F89E
:10ED8000041C5218F4E70EB4F0B588B0102100AF9F
:10ED900007F1340555F8042B04462B4678187A60A1
:10EDA000FD60FEF721FA0F287A681AD900F10803EE
:10EDB00023F007036E46ADEB030D411C2B4668465E
:10EDC000FD60FEF711FA021E04DD23686946204645
:10EDD0009B689847B5462037BD46BDE8F04003B074
:10EDE00070470028F7D0236802469B68204607F149
:10EDF00010019847EFE738B50B68044603604D688B
:10EE000043689D4208D015B16B6801336B60606840
:10EE100008B1FEF7A5FB656038BD07B503688DF83E
:10EE2000071001229B680DF10701984703B05DF8B8
:10EE300004FB0B461146002210B50446C0E900222F
:10EE400083600BB9204610BDFFF7D5FFFAE7836852
:10EE5000EBB11A78032A1AD8DFE802F00417021B74
:10EE60000520704702685B685268D05C2D2812D07C
:10EE7000A0F13003092B0ED974280ED066280CD0CF
:10EE8000A0F16E0358425841704706207047002099
:10EE9000704704207047032070470220704710B568
:10EEA0000446FFF7D4FF02280ED0C31EDBB2012BAD
:10EEB00014D82268A36850685B680A22BDE8104035
:10EEC0000021184400F0DABB2268A36852685B682E
:10EED000D05CA0F174035842584110BD0020FCE7FB
:10EEE00038B500230446C0E900330E48C4E90203E4
:10EEF000A9B10B78032B06D08BB9136858684B68FF
:10EF0000C35C6E2B07D013684D6858688B68284423
:10EF10005B1BA060E36011462046FFF76CFF2046B4
:10EF200038BD00BF5DFC3F0238B500250B460446E6
:10EF30001146C0E90055C0E90255C0E904554BB17E
:10EF40001A78012A06D103F11002DB68826043615E
:10EF5000FFF751FF204638BD10B54369044663B141
:10EF60008068013BE0601030A0602061636113B1F4
:10EF7000FFF7F2FEA060012000E0184610BD10B5BA
:10EF80007D210446FFF749FF01232046237110BD70
:10EF900008B50379012B02D0022B04D008BD2C2127
:10EFA000FFF73BFFFAE73A21FAE710B50446FFF70F
:10EFB000EFFF20467B21FFF730FF0023204623711F
:10EFC00010BD000013B504460191FFF7E1FF23686F
:10EFD0002046DB68019A03499847012320462371A4
:10EFE00002B010BD37FC3F0213B504460191FFF794
:10EFF000CFFF23682046DB68019A03499847012325
:10F000002046237102B010BD30FE3F022DE9F047CB
:10F010000D469046222104462F46FFF7FEFEDFF8FC
:10F02000A490A8444745BA463DD017F8016B222E5C
:10F0300006D05C2E04D0304600F0F0F90028F1D163
:10F040002368294620469B68AAEB050298475C2165
:10F050002046FFF7E2FE0D2E0AD8072E1CD9A6F196
:10F060000803052B18D8DFE803F00D0F111713154F
:10F07000222E01D05C2E0FD131462046FFF7CDFE67
:10F080003D46CFE76221F8E77421F6E76E21F4E709
:10F090006621F2E77221F0E72368324649462046AE
:10F0A000DB689847ECE7BD4205D023682946204637
:10F0B0009B687A1B984722212046FFF7AEFEBDE8E9
:10F0C000F08700BF33FE3F0213B50446CDE90021AF
:10F0D000FFF75EFFDDE900212046FFF797FF0223DF
:10F0E0002046237102B010BD13B50446CDE90021BE
:10F0F000FFF74EFFDDE900212046FFF787FF0123E0
:10F100002046237102B010BDFDF762BC1B2837B545
:10F11000044602D9002003B030BDA0F10F03022B3A
:10F120000BD9012821D800F047F90021007CFDF718
:10F13000C9FD80F00100C0B2EDE7114DD5E88F1F89
:10F1400011F001010BD128460191FCF7F3FF019961
:10F1500028B10C48FEF7E3F82846FCF7F0FF094B0E
:10F160001878FDF7E7FD0028D4D1083C012C05D81C
:10F1700000F076F8007CFDF727FDDAE70120CAE70A
:10F18000F8AE0710FCAE07101B2838B504460D4634
:10F190000AD8FF2908D0FFF7B9FF28B12946204631
:10F1A000BDE83840FDF706BC38BD38B504460D460D
:10F1B000FDF70EFCFF2810D0062804D84D2323FAB3
:10F1C00000F0C30709D42046FFF7A0FF28B1294665
:10F1D0002046BDE83840FDF709BC38BD10B50446EF
:10F1E000FDF7F6FB031FDBB2012B08D92046FFF722
:10F1F0008DFF20B12046BDE81040FDF705BC002082
:10F2000010BD704738B5142504462A46002100F089
:10F2100034F925804025074928462581258200F0BC
:10F22000F1F804496060284600F0ECF8E060204600
:10F2300038BD00BF39FE3F027047704710B5044625
:10F24000FFF7E0FF204610BD10B50446FFF7DAFFD8
:10F25000204610BD10B50446FFF7D4FF204610BD70
:10F2600030B50E4D87B0D5E88F1F11F0010411D1D4
:10F270002846FCF75FFF68B101A8FFF7DFFF2146D2
:10F2800001AA0748FFF7E4FB2846FCF758FF0548AA
:10F2900000F0BAF8024807B030BD00BF04AF071055
:10F2A00010AF07103BF53F0210B50D4C86B0D4E807
:10F2B0008F3FDB0711D42046FCF73CFF68B101A863
:10F2C000FFF7C2FF012101AA0648FFF7C1FB204654
:10F2D000FCF735FF044800F097F8024806B010BD6F
:10F2E00008AF071024AF071073F53F0210B5FFF702
:10F2F000DBFF074B044653B1FFF7C8FB38B1236867
:10F3000020461B699847002801DD00E000BF10BDC2
:10F310000000000010B50D4C86B0D4E88F3FDB072D
:10F3200011D42046FCF706FF68B101A8FFF792FF51
:10F33000022101AA0648FFF78BFB2046FCF7FFFEDF
:10F34000044800F061F8024806B010BD0CAF071089
:10F3500038AF071071F53F0210B5FFF7DBFF074B21
:10F36000044653B1FFF792FB38B1236820461B696E
:10F370009847002801DD00E000BF10BD000000003C
:10F380007047000038B50A4B044603600123094961
:10F390004361202000F036F82025606005492846AA
:10F3A000A56000F02FF8C4E90305204638BD00BF72
:10F3B0001800010039FE3F0230B50E4D87B0D5E888
:10F3C0008F1F11F0010411D12846FCF7B3FE68B17C
:10F3D0006846FFF7D7FF6A4621460748FFF786FBD6
:10F3E0002846FCF7ACFE054800F00EF8024807B0CE
:10F3F00030BD00BF50AF071054AF0710B9F63F0241
:10F40000FCF785BEFCF785BE002301461A46184668
:10F4100000F03EB90A22002100F030B9024B184436
:10F42000407800F097007047CEFE3F020A44431E2A
:10F43000914200D1704710B511F8014B914203F889
:10F44000014FF9D110BD884210B501EB020402D979
:10F450008442234607D8431EA14208D011F8012B4D
:10F4600003F8012FF8E7024401468A4200D110BD9B
:10F4700013F8014D02F8014DF7E7024403469342A9
:10F4800000D1704703F8011BF9E7000038B5104BB5
:10F4900004461D68AB6BB3B91820FDF77BFE02462E
:10F4A000A86320B90B4B42210B48FDF7B9FE0B496D
:10F4B0000B4BC0E900130B4B002183600B238381AE
:10F4C0000120C2E90401AB6B00221C615A6138BD06
:10F4D00088AD07103AFE3F0251FE3F020E33CDAB1E
:10F4E00034126DE6ECDE0500C9B2034610F8012BBC
:10F4F0001AB18A42F9D118467047002918BF002373
:10F50000F9E710B50446FFF7EFFF18B92046FCF7FE
:10F51000D9FD204410BD034611F8012B03F8012B3F
:10F52000002AF9D1704710B57AB103460139841821
:10F5300013F8010B11F8012F904201D1A34201D120
:10F54000801A10BD0028F3D1FAE71046F9E738B564
:10F5500003460C4669B9BDE83840FFF7C5BF431CF8
:10F56000054621461846FFF7BFFF0028F7D1284679
:10F5700038BD0025F5E70000012B2DE9F04701D04B
:10F58000242B06D9FDF73EFE162303600020BDE8BC
:10F59000F0870D46DFF8E0C02E4615F8014B14F851
:10F5A0000C7017F00807F7D12D2C32D12C780127D9
:10F5B000B51C002B5BD0102B09D1302C07D12C7837
:10F5C00004F0DF04582C4DD16C781023023507F17C
:10F5D00000484FF0000C08F1FF386646B8FBF3F91D
:10F5E00003FB198AA4F1300EBEF1090F16D8744638
:10F5F000A34224DDBCF1000F1EDBB1451CD301D1B9
:10F60000A24519DB06FB03464FF0010C15F8014B30
:10F61000E8E72B2C04BF2C78B51CCAE7A4F1410EF7
:10F62000BEF1190F01D8373CE2E7A4F1610EBEF13B
:10F63000190F04D8573CDBE74FF0FF3CE6E7BCF17D
:10F64000000F05DA22234646036042B930469EE7A2
:10F6500007B17642002AF9D0BCF1000F00D0691E34
:10F660001160F3E73024002BB1D10823AFE7302C31
:10F67000A5D00A23ABE700BFCFFE3F0213460A46E0
:10F68000014602480068FFF777BF00BF88AD07104A
:10F690002DE9F843DFF8BC8006461F460D46D8F832
:10F6A0000000914600F058F8264B1C6834B9264CEF
:10F6B0001C60264B13B11B68C4F8883063681F2B8D
:10F6C00007DDD8F8000000F049F84FF0FF30BDE842
:10F6D000F8835EB3D4F8880088B91D4B23B9D8F8F5
:10F6E000000000F03AF8F0E74FF48470FDF752FDA7
:10F6F0000028F4D00023C0E94033C4F888006368D0
:10F700000122022E40F8239002FA03F200EB83015B
:10F71000D0F8003143EA0203C0F80031C1F880702C
:10F7200002BFD0F804311343C0F804316368D8F83D
:10F7300000005A1C0233626044F8235000F00EF8B7
:10F740000020C4E7F4AF071068AF07100000000006
:10F75000CDD43F02ECAD07107047704770470000F2
:10F760000DC43F0235C43F0239C43F02000000000F
:10F7700043616C6C206F6E207075726520766972C3
:10F780007475616C004300420046004D0049000062
:10F790000000000000000000000000000000000069
:10F7A00055C43F027DC43F0200000000000000007D
:10F7B00039C53F026DC53F02F5E53F029DE73F02B7
:10F7C0000000000000000000000000000000000039
:10F7D000FF00000000FF00FF0000000000FF00002D
:10F7E00000000000000000000000000000FF00FF1B
:10F7F000FF0000000000000000000000000000000A
:10F800000000000000FF00005350492F53504931C1
:10F8100020696E74657266616365206E6F74206422
:10F820006566696E65642100506978656C2074793D
:10F830007065206E6F7420737570706F727465647C
:10F84000210000004E6F7420656E6F756768206D33
:10F85000656D6F727920617661696C61626C65219A
:10F86000000000000000000000000000EFD53F0293
:10F87000E5D53F02DBD53F02D1D53F02C5D53F02DA
:10F88000B9D53F0239EF3F0241EF3F02ADD53F020C
:10F89000A5D53F029BD53F0291D53F0269F03F02BB
:10F8A00071EF3F0279EF3F0200081018202830382E
:10F8B000000000000000000035D93F0237D93F02A8
:10F8C000F5D83F02BFF03F02626175640053657274
:10F8D00069616C0053657269616C31004A534F4E27
:10F8E00053747265616D4C6F6748616E646C6572CC
:10F8F0000061707000253031307520005D200025DA
:10F9000064002C200028293A2000205B00636F64EB
:10F9100065203D200025690064657461696C732071
:10F920003D20000D0A006D0066006C6E00666E00E2
:10F930007400636F64650064657461696C00000045
:10F9400000000000000000007DDE3F0295DE3F0267
:10F95000F5E53F029DE73F020000000000000000C7
:10F96000A9DE3F02BDDE3F02D5E73F02FFD93F02DD
:10F97000000000000000000011DA3F0237DA3F0209
:10F9800059E53F0201DA3F020000000000000000DC
:10F990000FDA3F0245DA3F02E5DD3F0267DA3F0258
:10F9A00025592D256D2D25645425483A254D3A2598
:10F9B00053257A0061736374696D6500000000006F
:10F9C000000000001FEB3F020FEB3F0211EB3F0274
:10F9D000000000000000000007EC3F026FEC3F0257
:10F9E00045EC3F0209D93F0237EC3F0209EC3F02E8
:10F9F00019EC3F0269EC3F02D5D93F0229EC3F02E6
:10FA000001EC3F0200000000000000000DED3F028D
:10FA100079ED3F0251ED3F0209D93F0221ED3F024E
:10FA20003DED3F022FED3F024BED3F02D5D93F02A6
:10FA30000FED3F0213ED3F02000000000000000048
:10FA4000CBED3F0215EE3F02EDED3F02CDED3F0263
:10FA5000F5ED3F02FDED3F0205EE3F020DEE3F02E8
:10FA6000D5D93F020000000000000000DBEE3F029D
:10FA7000D1EE3F02C7EE3F027DEE3F02BBEE3F02FA
:10FA8000AFEE3F0239EF3F0241EF3F02A3EE3F02EC
:10FA90009BEE3F0291EE3F0287EE3F0269F03F028C
:10FAA00071EF3F0279EF3F024CAE0710E8AE07104E
:10FAB000F0AE07100000000000000000F9EE3F0269
:10FAC00003EF3F020DEF3F0217EF3F0221EF3F022E
:10FAD0002DEF3F0239EF3F0241EF3F0249EF3F0276
:10FAE00055EF3F025DEF3F0267EF3F0269F03F02D3
:10FAF00071EF3F0279EF3F022575007525303478AC
:10FB000000005245454E54206D616C6C6F6320734C
:10FB10007563636565646564002F6D6E742F776F20
:10FB2000726B73706163652F776F726B7370616353
:10FB3000652F4743432D31302D706970656C696EB8
:10FB4000652F6A656E6B696E732D4743432D3130A7
:10FB50002D706970656C696E652D34385F32303296
:10FB600030313132345F313630363138303634313D
:10FB70002F7372632F6E65776C69622F6E65776C79
:10FB800069622F6C6962632F7374646C69622F728F
:10FB9000616E642E63000020202020202020202081
:10FBA000282828282820202020202020202020202D
:10FBB000202020202020208810101010101010105D
:10FBC00010101010101010040404040404040404A1
:10FBD0000410101010101010414141414141010129
:10FBE0000101010101010101010101010101010105
:10FBF0000101101010101010424242424242020213
:10FC000002020202020202020202020202020202D4
:10FC10000202101010102000000000000000000080
:10FC200000000000000000000000000000000000D4
:10FC300000000000000000000000000000000000C4
:10FC400000000000000000000000000000000000B4
:10FC500000000000000000000000000000000000A4
:10FC60000000000000000000000000000000000094
:10FC70000000000000000000000000000000000084
:10FC80000000000000000000000000000000000074
:10FC90000000000000000000C5C73F02F9D53F0288
:10FCA00031D73F02E5D83F02E5E53F0249E93F028F
:10FCB00065E93F0261EE3F02E5EE3F027DF03F0263
:10FCC0000000000259000000FA000000B0FC3F02F2
:10FCD000C8FC3F02ECFC3F028CAD071000000000A6
:10FCE0000000000000000000000000000000000014
:10FCF0000000000000000000000000000000000004
:10FD000000000000000000000000000000000000F3
:10FD100000000000000000000000000000000000E3
:10FD200000000000000000000000000000000000D3
:10FD3000000000000000000000000000F8AF071005
:04FD400000000000BF
:10FFBE000200100000C05F08A8C05F08E0C33F0247
:10FFCE0001000A00FFFFFFFFFFFF00000102030414
:10FFDE0005060708090A0B0C0D0E0F10111213144B
:0EFFEE0015161718191A1B1C1D1E1F203E0089
:04FFFC0078563412ED
:04000005085FC018B8
:00000001FF
